:020000040800F2
:1000000000180020113C0008111E0008131E0008F3
:1000100000000000000000000000000000000000E0
:10002000000000000000000000000000151E000895
:100030000000000000000000171E0008191E000844
:10004000913C0008913C0008913C0008913C00085C
:10005000913C0008913C0008913C0008913C00084C
:10006000913C0008913C0008913C0008913C00083C
:10007000913C0008913C0008913C0008913C00082C
:10008000913C00080000000000000000913C0008C6
:1000900000000000913C0008913C0008913C0008E1
:1000A00000000000913C0008913C0008913C0008D1
:1000B000913C000800000000913C0008211E00084F
:1000C000002934D00123002210B488422CD301240B
:1000D0002407A14204D2814202D209011B01F8E7A0
:1000E000E400A14204D2814202D249005B00F8E759
:1000F000884201D3401A1A434C08A04202D3001B85
:100100005C0822438C08A04202D3001B9C082243B7
:10011000CC08A04202D3001BDC082243002803D0F5
:100120001B0901D00909E3E7100010BC704701B5B5
:10013000002000F00BF802BD0029F8D003B5FFF74E
:10014000C1FF0EBC4243891A1847C0467047C046DB
:1001500010B5064C2378002B07D1054B002B02D09D
:10016000044800E000BF0123237010BD48010020B7
:1001700000000000EC3C0008044B10B5002B03D03D
:100180000349044800E000BF10BDC0460000000065
:100190004C010020EC3C000810B586B001AC1422E4
:1001A0000021200003F075FD0A4B5A698021890265
:1001B0000A435A615B690B400093009BFF23019344
:1001C000FD3B039390202100C00500F03BF906B0F1
:1001D00010BDC0460010024003002033DBB2072BE5
:1001E00013D9021FD2B25F2A0ED8043883B2DB08BB
:1001F000DBB20233DBB207201040084AD3189A78EA
:10020000012181400A439A70704704498B78E03895
:100210000122824013438B70F6E7C0466401002040
:1002200072B6FEE710B598B00BAC34220021200066
:1002300003F02FFD1022002107A803F02AFD182249
:10024000002101A803F025FD20230B931F3B1393EE
:10025000200001F0B9F9002818D107A80723079357
:10026000043B436000238360C360012101F08AFCEA
:1002700000280DD101A880239B0201930023436134
:1002800001F022FD002805D118B010BDFFF7C8FF0E
:10029000FFF7C6FFFFF7C4FF10B500F03FF8FFF708
:1002A000C1FFFFF779FF02F081FC1A20FFF794FFEE
:1002B000044905480E2203F060FC0A2000F050F8C3
:1002C000F3E7C046640100207801002010B5040067
:1002D0000F4B1978FA208000FFF7F2FE01000D4B5A
:1002E0001868FFF7EDFE00F0A9F800280DD1032CE7
:1002F00001D901200AE0013000222100404200F033
:100300008DF8054B1C60002000E0012010BDC046A8
:1003100000000020080000200400002010B5064A5C
:10032000136810210B4313600320FFF7CFFF00F089
:1003300047F9002010BDC04600200240034A116862
:10034000034B1B785B1813607047C0467401002094
:1003500000000020014B18687047C046740100205F
:1003600070B50400FFF7F6FF0500631C02D0044BD4
:100370001B78E418FFF7EEFF401BA042FAD370BDD4
:100380000000002070B5002811DB8308134DC03336
:100390009B005C5903221040C000FC3216008640CE
:1003A000B44389010A40824022435A5170BD0F2351
:1003B0000340083B9B0806339B00094A944663446C
:1003C0005C6803221040C000FC3215008540AC433D
:1003D00089010A40824022435A60E7E700E100E0D9
:1003E00000ED00E0013880235B0498420FD2094AF7
:1003F00050600948036A1B021B0AC02109060B430F
:1004000003620023936007331360002070470120CC
:10041000FCE7C04610E000E000ED00E010B5FFF79B
:10042000B1FF10BD002805DB1F22024001239340CD
:10043000014A13607047C04600E100E010B5FFF7C5
:10044000D1FF10BDF0B583B0002356E086685F0091
:100450000324BC40A643CC68BC4034438460446859
:1004600094434E683609012232409A40224342604A
:1004700053E0DE080836B600375805321A409200BD
:100480000F249440A7430C69944022003A43325011
:1004900056E0022600E00026A64034003C4302322B
:1004A0009200424E9451424A9768EA433E00AE435E
:1004B0004C68E40201D53E002E433D4CA660E7683F
:1004C0003E0016404C68A40201D53E002E43384C35
:1004D000E66067683E0016404C68A40301D53E0004
:1004E0002E43334C6660266832404C68E40301D5E5
:1004F0002A0032432E4C226001330C682200DA407D
:1005000051D001229A40250015401442F4D04E6883
:1005100003243440013C012C98D94C68032222402A
:10052000032A08D0C4685E000322B24094438A685C
:10053000B2402243C2604C6803222240022A98D073
:1005400004685E0003221700B740BC434F683A407E
:10055000B240224302604C68C02292021442CBD0C7
:10056000144CA66901221643A661A4692240019297
:10057000019A9A08941CA4000C4EA75903241C400D
:10058000A4000F26A640B7439026F605B04282D0BD
:10059000094EB04205D0094EB04200D179E7052698
:1005A0007AE7012678E703B0F0BDC04600000140BD
:1005B0000004014000100240000400480008004808
:1005C00082B00A4B996901221143996199690A40E5
:1005D0000092009ADA69802149050A43DA61DB69F1
:1005E0000B400193019B02B07047C04600100240CF
:1005F00070B553043CD504685023E35A0D78EE00DF
:100600009B191B19384CA44663441C88A405A40DEF
:100610008B69A34222D31B1B8B618B69002B0CD1EE
:100620000368AD005D192B88304E33408026B6013B
:100630005E402F4B33439BB22B8052060AD5026893
:100640000B789B00D21815882A4B1D402A4B2B4350
:100650009BB21380002C04D1200070BD00238B615D
:10066000DBE700680A894969230002F087FAF3E7AB
:1006700004685023E35A0D78EE009B191B191F4C98
:10068000A44663441C88A405A40D8B69A34227D308
:100690001B1B8B618B69002B0CD10368AD005D19AE
:1006A0002B88124E33408026B6015E40104B3343F8
:1006B0009BB22B8052060AD402680B789B00D2189A
:1006C00015880C4B1D400C4B2B439BB21380002C08
:1006D000C2D000684A894969230002F04FFABBE79B
:1006E00000238B61D6E7C046020400008FBFFFFFE6
:1006F0008080FFFF8F8FFFFFC080FFFF0604000098
:1007000070B5041E58D02D4BC35C002B07D02B4B6B
:100710000322E254206801F095FB002217E0A42395
:100720009B000022C25402F075FAF0E793009B1878
:10073000DB00E318012159741A740021D97419627D
:100740005962013293009B18DB001951D2B2207913
:100750009042EBD8002119E08A005318DB00E3181F
:100760001E005236FF3600253570013E31700336CB
:1007700035700D3635606533FF331D605218D20079
:10078000A2186932FF3215600131C9B28842E3D83C
:1007900020686168A26801F05FFB00232373074BA8
:1007A0000122E254A37A012B01D0002070BD200069
:1007B00000F0F4FE0020F9E70120F7E791020000C5
:1007C00070B50400A4239B00C35C012B0DD0A425AD
:1007D000AD0001234355006801F02AFB206801F0B9
:1007E00011FE00236355002070BD0220FCE70000CD
:1007F00070B505000C001600530600D4EEE0026848
:100800005023D35A0978C8001B189B18AB4A94464A
:1008100063441A889205920DA369934240D99B1AAA
:10082000A361A369002B59D16378002B3BD12B68BE
:1008300050229A5A9B18C318A04A944663441A88B7
:100840009205920D1A801A889D490A4392B21A8025
:100850002B686278002A33D150329A5A9A1823783A
:10086000DB009B18974A944663441A889205920DC0
:100870001A801A8892490A4392B21A802178280075
:1008800002F002FA760439D52A6823789B00D21840
:1008900011888D4B19408D4B0B439BB213802DE07B
:1008A0000023A361BDE7012BD2D12B6850229A5AB5
:1008B0009B18C018814B9C46604400230380C7E707
:1008C000012ADBD14F329A5A9B182278D200D318D2
:1008D0007C4A9446634400221A80CFE7760409D507
:1008E0002B68890059180888774B1840774B0343C9
:1008F0009BB20B802423E35C012B0FD02968237863
:100900009B00C9180B88724A1340302253409BB297
:10091000704A13439BB20B80002070BD63699B1823
:100920006361E369D318E361216A236999421AD3A9
:10093000C91A21626278002A3AD12A685021515A94
:1009400051182278D20052185C498C4662441188B2
:100950008905890D1180002B11D111885848014358
:1009600089B2118026E0002903D12423E154130029
:10097000E0E700232422A35423620B00DAE73E2B96
:1009800009D85908D80700D501311088890289B2E1
:10099000014311800EE05909D80600D101391088B1
:1009A000890289B208434649014389B2118001E0B6
:1009B000012A06D028689BB22289616901F030FDC6
:1009C0009CE72A685021515A51182278D2005218B7
:1009D0003A498C46624499B21180EBE70268502391
:1009E000D35A0978C8001B189B18364A94466344AA
:1009F0001A889205920DA369934241D39B1AA36171
:100A0000A369002B68D16378002B3CD12B6850225E
:100A10009A5A9B181B18294A944663441A889205CF
:100A2000920D1A801A8826490A4392B21A802B68BE
:100A30006278002A34D150329A5A9B182278D20018
:100A40009B18204A944663441A889205920D1A8096
:100A50001A881B490A4392B21A802178280002F0B2
:100A600013F9760400D549E72A6823789B00D21849
:100A70001188154B1940154B0B439BB213803DE772
:100A80000023A361BCE7012BD1D12B6850229A5AD5
:100A90009B181B18094A9446634400221A80C6E733
:100AA000012ADAD14F329A5A9B182278D2009B1829
:100AB000044A9446634400221A80CEE702040000F0
:100AC0000080FFFF060400008F8FFFFF80C0FFFF44
:100AD000BF8FFFFF8080FFFF760409D42B68890059
:100AE00059180888344B1840344B03439BB20B8091
:100AF0002423E35C012B00D000E763699B1863614A
:100B0000E369D318E361216A236999421AD3C91AA8
:100B100021622A686178002939D15031515A52181E
:100B20002178C900521826498C46624411888905EB
:100B3000890D1180002B11D111882248014389B2FF
:100B4000118026E0002903D12423E1541300E0E7BB
:100B5000002323622422A3540B00DAE73E2B09D89A
:100B60005908D80700D501311088890289B201439C
:100B700011800EE05909D80600D101391088890288
:100B800089B208430F49014389B2118001E001296C
:100B900006D028689BB26289616901F041FCADE62C
:100BA0004F31515A52182178C900521804498C46C5
:100BB000624499B21180ECE78F8FFFFF80C0FFFF86
:100BC000060400000080FFFFF8B5CE46474680B51A
:100BD000040020684423C35A1BB2002B00DB98E2B8
:100BE0004423C35A99B20F221D001540134200D06E
:100BF000CBE0C9065DD503889AB21B0500D587E016
:100C000012B2002AE5DA0388D64A13408022134341
:100C10009BB2038020685023C35AA8225200A25CD2
:100C2000D2009B181B18D04A944663441B889B052E
:100C30009B0D22005132FF32D361002B0ED051693F
:100C400000290BD01500D28801F098FF6B69EA6982
:100C50009B186B610021200002F007F822681388BE
:100C600099B21B05B5D4C0239B0119409942B0D05D
:100C70005023D35AD218BC4B9C46624413889B0520
:100C80009B0D138023005133FF331B69002B63D16D
:100C90001388B6490B439BB2138021680B88B44A72
:100CA0001340C02292015A40B24B13439BB20B80B7
:100CB0008FE70288B04B1A40AC4B13439BB20380C2
:100CC00021685023CB5A227CD2009B185B18AB4A78
:100CD000944663441B889B059B0DE362626AD318AC
:100CE00063620021200001F0CFFF237B002B00D1A5
:100CF0006FE7A36A002B00D06BE7237B216880227B
:100D000052421343DBB2CC328B520023237360E791
:100D10005023C35AA8225200A25CD2009B181B1871
:100D2000914A944663441B889B059B0D22005132D7
:100D3000FF32D361A62189006118D28801F01EFF1D
:100D40002268138887490B4080210B439BB2138094
:100D5000200001F07FFF3CE73E2B09D85908DB0754
:100D600000D501311388890289B20B43138094E7BF
:100D70005909DB0600D101391388890289B2194368
:100D80007A4B0B439BB2138087E7AE008019038830
:100D90009FB21BB2002B46DB3B0600D419E7AB0029
:100DA0005919C90010316118206880190688724AE3
:100DB00016406E4A324392B202805B19DB00E318A0
:100DC000DB7C012B00D109E1FB0500D59CE120680B
:100DD0005023C35AAA005219D200A218167CF2005E
:100DE0009B181B18654A944663441B889B059B0D02
:100DF0006F1CBA00D219D20012599A4200D867E18A
:100E0000BC46BF006744FF00D21A3A516F1CBA00BB
:100E1000D219D2001259002A00D060E1310020001E
:100E200001F032FFD5E603884E4A13408022134377
:100E30009BB203807219D2005132FF329046A04417
:100E40007319DB00E3185D33FF331B78002B4BD1A4
:100E500020685033C25A7319DB00E3185133FF3353
:100E60001B78DB00D3181B183F4A944663441B8849
:100E70009B059A0D9146002B28D1AA005219D20049
:100E8000A21810006D30FF30036849464B440360E0
:100E9000083803684B4403606932FF321368002B43
:100EA00009D0AB005B19DB00E3186133FF331B682B
:100EB000994200D38DE0AB005B19DB00E31851339E
:100EC000FF331978200001F0D0FE65E77319DB00CD
:100ED000E3181A005732FF3212886533FF3319685E
:100EE0004B4601F04BFEC8E7AB005B19DB00E31893
:100EF0005433FF331B78022B46D02168AB005B19BB
:100F0000DB00E3185133FF331A7892008918088800
:100F10001B4A10401B4A024392B20A8020681A788A
:100F20009300C3181B885B0435D55023C35AD200E5
:100F30009B181B18114A944663441B889B059A0D05
:100F40009146002B99D0AB005B19DB00E3181A0027
:100F50005932FF3212886533FF3319684B4601F06E
:100F60000DFE8AE78F0F0000060400000080FFFFDF
:100F70008FBFFFFF8080FFFF0F8FFFFF0204000085
:100F80008F8FFFFFC080FFFF3A0041462000FFF730
:100F90002FFB814671E75023C35AD2009B181B18C0
:100FA0005E4A944663441B889B059A0D9146002B2C
:100FB00000D162E7AB005B19DB00E3181A005B327B
:100FC000FF3212886533FF3319684B4601F0D6FDB6
:100FD00053E72068414601F037FADDE66A1C9300CA
:100FE0009B18DB0000221A51AB005B19DB00E318F1
:100FF0001B7F002B1FD07F0639D5AB005B19DB00B0
:10100000E3185B7C002B1FD1236850329A5A9A1840
:10101000AB005B19DB00E3181B7CDB009B18404A2C
:10102000944663441A889205920D1A801A883D49A5
:101030000A4392B21A80AB005B19DB00E318197CFB
:10104000200001F021FEC4E5012BF4D123685022D9
:101050009A5A9A18AB005B19DB00E3181B7CDB0083
:101060009B182F4A9446634400221A80E3E72268C3
:10107000AB005B19DB00E3185B7C002B16D150330F
:10108000D35AD218AB005B19DB00E3181B7CDB00E2
:101090009B18224A944663441A889205920D1A803E
:1010A0001A8820490A4392B21A80C4E7012BC2D1A0
:1010B0004F33D35AD218AB005B19DB00E3181B7C0B
:1010C000DB009B18154A9446634400221A80B2E75D
:1010D0006F1CBA00D219D2000027175196E6AA0059
:1010E0005219D200A218566AF61856620135AA00A3
:1010F0005619F600A61976685219D200A2189B1943
:10110000536001F0A1F964E53A002000FFF770FB9D
:101110005FE50020C0BCB946B046F8BD060400003B
:10112000020400000080FFFF70B50400A4239B00B0
:10113000C35C012B0BD0A425AD00012343550173E3
:10114000006801F057F900236355002070BD0220AC
:10115000FCE7000070B50400006801F05DF90304CD
:1011600018D443051AD4430426D483042BD4C304CF
:1011700030D4030551D4030600D565E0830500D5BE
:1011800090E0C0051ED5216844228B5A4A4803408E
:101190008B5217E02000FFF717FD13E0216844226F
:1011A0008B5A464803408B52200001F081FD0021FC
:1011B0002000FFF7B9FF05E0216844228B5A404820
:1011C00003408B5270BD216844228B5A3D48034036
:1011D0008B52F7E721684023CA5A04208243CA523F
:1011E0002168CA5A04308243CA52B2239B00E35C8E
:1011F000012B09D0200001F07FFD216844228B5A89
:10120000314803408B52DDE7B2239B000022E254B9
:101210000021200000F0D7F9ECE7216840228B5A2A
:10122000082003439BB28B5220684421435A274D28
:101230002B40435221688B5A042003439BB28B52AC
:10124000200001F047FDBDE7216844228B5A802031
:1012500083438B52B2239B00E35C002B1ED1216899
:10126000043A8B5A042003439BB28B5221688B5A59
:10127000082003439BB28B52B2239B003F3AE254B7
:1012800022685423D25A9208183B1340B32292008A
:10129000A3500121200000F096F993E7200001F00F
:1012A00019FD8FE7216844228B5A094803408B526D
:1012B000200001F0F6FC85E7FFFEFFFFFFFBFFFFCC
:1012C000FFBFFFFFFFDFFFFFFFEFFFFFFFF7FFFFA6
:1012D000FFFDFFFF70B504000D0049B2002925DBBA
:1012E00007262E40B0008119C9005131FF31611825
:1012F0008019C00020185230FF30002606700720E9
:10130000284008700A61CB70022B1CD0A4239B00DC
:10131000E35C012B1AD0A425AD000123635520689E
:1013200000F0AAFD00236355002070BD07262E4063
:10133000B0008119C900103161188019C00020184F
:1013400001264674DBE700230B71DFE70220ECE7A0
:1013500070B504000A004BB2002B21DB07200840C7
:1013600083001918C9005131FF3161181B18DB00C7
:10137000E3185233FF3300201870072313400B701B
:10138000A4239B00E35C012B17D0A425AD0001230F
:101390006355206800F002FF00236355002070BDF4
:1013A0000720084083001918C900103161181B1864
:1013B000DB00E31801205874DFE70220EFE7F8B5FF
:1013C00007260E40B400A119C9005131FF31411860
:1013D000A519ED0045192F006537FF373A602A003F
:1013E0006932FF3213600432002313605235FF3537
:1013F0002B70A419E40004195134FF3426700068DE
:1014000001F022F80020F8BDF0B5D6464F4646461A
:10141000C0B5994607250D40AC006119C9001031CF
:101420008A4682446619F600861972626F1CBA00F9
:10143000D119C9000B5034218846B04433398C4649
:10144000414663460B704B463363D219D200821873
:10145000002353606346737435740068514600F08E
:10146000F3FF0020E0BCBA46B146A846F0BD70B517
:1014700004000B0007220A40017991422DD359B292
:1014800000291FDB9800C118C9005131FF316118D4
:10149000C018C00020185230FF3000230370012311
:1014A0008B700A70A4239B00E35C012B17D0A4254A
:1014B000AD0001236355206800F028FF0023635529
:1014C000002070BD93009918C900103141189B1875
:1014D000DB00C31801205874E1E70120F1E7022086
:1014E000EFE770B504000B0001790F221A4091421A
:1014F00033D35AB2002A23DB072018408200111888
:10150000C9005131FF3161181218D200A2185232AD
:10151000FF320020107000228A70073213400B70D7
:10152000A4239B00E35C012B19D0A425AD0001236B
:101530006355206800F010FF00236355002070BD44
:101540000720184082001118C900103161181218C4
:10155000D200A21801205074DDE70120EFE702203D
:10156000EDE710B50C060CD507240C40A1000919B5
:10157000C90010314018002A0AD10273C38000202C
:1015800010BD8C006118C9005131FF314018F2E7DD
:101590000122027303811B0C4381F0E70168B4232D
:1015A0009B000122C250083B0022C25454328B5A85
:1015B000012003439BB28B528B5A022003439BB200
:1015C0008B5200207047704770B582B0041E00D166
:1015D0007FE20368DB072BD5B34B5A680C2313401B
:1015E000042B1DD0B04B5A680C231340082B0ED08F
:1015F0006368012B41D0002B56D1AB4B1A68AB4925
:101600000A401A601A68AA490A401A603BE0A64BD1
:101610005B68C02252021340802252029342E7D1FB
:10162000A14B1B689B0303D56368002B00D153E2D9
:1016300023689B0777D59C4B5B680C221A4262D0CB
:10164000994B5A680C231340082B53D0E368002BA6
:1016500000D18AE0944A136801210B431360FEF71E
:1016600079FE0500904B1B689B0775D4FEF772FE50
:10167000401B0228F6D903202CE28B4A11688023F4
:101680005B020B4313606368002B25D0FEF762FEFC
:101690000500854B1B689B03CAD4FEF75BFE401B0D
:1016A0006428F6D9032015E2052B09D07E4B1A6871
:1016B0007E490A401A601A687D490A401A60E2E7CA
:1016C000794B19688022D2020A431A601968802275
:1016D00052020A431A60D6E7FEF73CFE0500724B41
:1016E0001B689B03A4D5FEF735FE401B6428F6D982
:1016F0000320EFE16C4B5B68C02252021340802252
:1017000012029342A2D1684B1B689B0703D5E36882
:10171000012B00D0E2E164490B68F822934322696F
:10172000D20013430B6023681B0744D5E369002BE9
:101730002ED05D4A536A01210B435362FEF70AFE25
:101740000500594B5B6A9B0735D4FEF703FE401B2F
:101750000228F6D90320BDE153490B68F8229343D0
:101760002269D20013430B60DDE74F4A1368012161
:101770008B431360FEF7EEFD05004B4B1B689B0788
:10178000D1D5FEF7E7FD401B0228F6D90320A1E1E1
:10179000454A536A01218B435362FEF7DBFD050086
:1017A000414B5B6A9B0706D5FEF7D4FD401B022820
:1017B000F6D903208EE123685B0700D480E03A4B22
:1017C000DB69DB001DD4384BDA69802149050A4307
:1017D000DA61DB690B400193019B0125354B1B68E6
:1017E000DB0510D5A368012B21D0002B36D12E4B61
:1017F0001A6A01218A431A621A6A03318A431A62F9
:101800001AE00025EAE72B4A116880235B000B43AE
:101810001360FEF79FFD0600264B1B68DB05E1D435
:10182000FEF798FD801B6428F6D9032052E11E4A7A
:10183000136A01210B431362A368002B24D0FEF727
:1018400089FD0600184B1B6A9B0737D4FEF782FD03
:10185000801B194B9842F5D903203BE1052B09D099
:10186000114B1A6A01218A431A621A6A03318A43A8
:101870001A62E1E70C4B1A6A04210A431A621A6AD7
:1018800003390A431A62D7E7FEF764FD0600064BE8
:101890001B6A9B0712D5FEF75DFD801B064B984225
:1018A000F5D9032016E1C04600100240FFFFFEFFFD
:1018B000FFFFFBFF0070004088130000012D39D0AE
:1018C0002368DB0610D56369012B39D0053357D166
:1018D000894A536B04218B435363536BF4318B431D
:1018E000A169C9000B43536323689B066ED5824BE5
:1018F0005A680C2313400C2B60D07F4B5A680C2382
:101900001340082B53D0236A002B7ED07A4A516BA8
:1019100080235B020B435363FEF71CFD0500764BEF
:101920005B6B9B0352D4FEF715FD401B0228F6D9D2
:101930000320CFE0704AD36970490B40D361BFE701
:101940006D4B5A6B04210A435A635A6B03390A439D
:101950005A63FEF7FFFC0500674B5B6B9B0706D4E1
:10196000FEF7F8FC401B0228F6D90320B2E06249DA
:101970004B6BF8229343A269D20013434B63B3E746
:101980005D4B5A6B04210A435A635A6B03398A43ED
:101990005A63FEF7DFFC0500574B5B6B9B07A3D533
:1019A000FEF7D8FC401B0228F6D9032092E0524BE8
:1019B0005B68C022520213409342A4D14E4B5B6B32
:1019C0009B0303D5236A012B00D089E0636A002BB7
:1019D00000D187E0484A51680C220A40082A60D0AA
:1019E000022B25D0444A136845490B401360FEF78B
:1019F000B1FC0400404B1B689B0150D5FEF7AAFCCC
:101A0000001B0228F6D9032064E03B4A536B3D4992
:101A10000B405363FEF79EFC0500374B5B6B9B034B
:101A2000D4D5FEF797FC401B0228F6D9032051E0DD
:101A3000314A136832490B401360FEF78BFC0500F6
:101A40002D4B1B689B0106D5FEF784FC401B02282A
:101A5000F6D903203EE0284BDA6A0F218A43216B36
:101A60000A43DA625A6828490A40E16AA06A0143D7
:101A70000A435A601968802252040A431A60FEF72A
:101A800069FC04001C4B1B689B0106D4FEF762FC3A
:101A9000001B0228F6D903201CE000201AE00020D9
:101AA00018E0012B20D0144B5A68D86AC0235B027F
:101AB0001340A16A8B4219D10F230340216B8B4243
:101AC00016D1F0239B031A40E36A9A4212D10020F8
:101AD00000E0012002B070BD0120FBE70120F9E722
:101AE0000120F7E70020F5E70120F3E70120F1E707
:101AF0000120EFE70120EDE700100240FFFFFFEFBC
:101B0000FFFFFFFEFFFFFEFFFF7FC2FF10B5184B78
:101B10005A680C231340082B03D00C2B25D11548F1
:101B200010BD910C0F2319401348445C1049C96A39
:101B30000B401249C95CC0235B021A4080235B0240
:101B40009A4208D0C0235B029A4209D00C48FEF7A3
:101B5000B7FA6043E4E70A48FEF7B2FA6043DFE70A
:101B60000448FEF7ADFA6043DAE70548D8E7C04617
:101B700000100240006CDC02143D0008043D000827
:101B800000127A0070B504000D00002800D186E034
:101B9000474B1A68012313408B420AD244490B6811
:101BA000012293432B430B600B681A40AA4200D0DA
:101BB00077E023689A070ED55B0705D53D4A516843
:101BC000E023DB000B4353603A4A5368F0218B4318
:101BD000A1680B4353602368DB0735D56368012B8D
:101BE00009D0022B24D0032B28D0324A1268920746
:101BF00005D4012052E02F4A1268920353D52D4993
:101C00004A680320824313434B60FEF7A3FB0600A0
:101C1000284B5B680C221A4063689B009A4213D0E1
:101C2000FEF798FB801B244B9842F1D9032035E046
:101C3000204A12689201E2D401202FE01D4A526B23
:101C40009203DCD4012029E0194B1A6801231340C8
:101C5000AB4209D916490B68012293432B430B6011
:101C60000B681A40AA4220D123685B0706D5114AA7
:101C7000536812490B40E1680B435360FFF746FF7E
:101C80000C4B5A6812090F2313400D4AD35CD840FD
:101C90000C4B18600320FEF719FB002070BD0120DB
:101CA000FCE70120FAE70120F8E70120F6E7C0464B
:101CB000002002400010024088130000FFF8FFFFE0
:101CC000243D00080800002070B582B004000368BD
:101CD000DB0339D5484BDB69DB0060D4464BDA695E
:101CE000802149050A43DA61DB690B400193019BBE
:101CF0000125424B1B68DB0553D53F4B1A6AC023B5
:101D00009B00110019401A4215D06368C02292004E
:101D100013408B420FD0384B1A6A394911401E6A62
:101D20008020400230431862186A364E30401862F4
:101D30001962D20749D4304A136A31490B406168AD
:101D40000B431362012D4FD02368DB0706D52A4AC7
:101D5000136B03218B43A1680B43136323689B061A
:101D600006D5254A136B10218B43E1680B4313639F
:101D700023689B0306D5204A136B80218B4361693E
:101D80000B43136323685B0533D51B4A136B402158
:101D90008B4321690B431363002002B070BD002503
:101DA000A7E7164A116880235B000B431360FEF718
:101DB000D1FA0600114B1B68DB059ED4FEF7CAFA68
:101DC000801B6428F6D90320E7E7FEF7C3FA060074
:101DD000094B1B6A9B07AED4FEF7BCFA801B0A4B6B
:101DE0009842F5D90320D8E7D36908490B40D3615D
:101DF000AAE70020D1E7C046001002400070004072
:101E0000FFFCFFFFFFFFFEFF88130000FFFFFFEF57
:101E1000FEE7FEE77047704710B5FEF78FFA10BD7A
:101E200010B50248FFF796F910BDC04650040020D7
:101E300044230022C252043B014AC2520020704790
:101E400080BFFFFF4022835A02490B40835200208B
:101E50007047C0467F40000082B00091019240224E
:101E60000123835200238352043283520C32835263
:101E7000002002B070470000F0B503000D78AD00FF
:101E800045192A88B9480240C878022857D00AD88C
:101E9000002811D0012804D18020C0000243002076
:101EA0000DE001200BE0032804D1C020C000024354
:101EB000002004E0012002E08024A4002243AC4C76
:101EC000224392B22A800D78AA009A181688A94F48
:101ED0003E4035432C43A4B214800A7B002A00D034
:101EE0009EE04A78002A37D050229C5A1C190A7862
:101EF000D20012198024E400A4466244CC8864080D
:101F0000640014800A7892009A181488640605D533
:101F100015883D40984C2C43A4B21480CA78012AFD
:101F20000FD00A7892009A18138894490B40202108
:101F30004B409BB28E490B439BB21380CAE00020FA
:101F4000BDE70A7892009B1819888C4A1140884A8C
:101F50000A4392B21A80BDE050255C5B1C190A78D6
:101F6000D2001219864CA4466244CC8864086400EE
:101F700014805C5B1C190A78D2001219814CA446AB
:101F800062441488A405A40D14800C69002C21D18E
:101F900014887D4D2C43A4B214800A7892009A18BC
:101FA0001488640406D51588724C2540774C2C4360
:101FB000A4B214800A78002A25D192009A181388B6
:101FC00073490B40C02189015940694B0B439BB2B7
:101FD00013807FE03E2C09D86508E40700D5013561
:101FE0001488AD02ADB22C431480D6E76509E4062F
:101FF00000D1013D1488AD02ADB22543624C2C43A3
:10200000A4B21480C9E792009A18138860490B4063
:10201000802189015940564B0B439BB2138059E0F4
:10202000CA78022A57D00A7892009A181588594C13
:1020300025404F4C2C43A4B2148050255C5B1C19E6
:102040000A78D20012198024E400A44662440C8964
:102050006408640014805C5B1C190A78D2001219B1
:10206000474CA44662444C896408640014804A7852
:10207000002A3BD10A7892009A181488640406D585
:1020800015883C4C2540414C2C43A4B214800A785E
:1020900092009A181488640606D51588354C254098
:1020A000354C2C43A4B214800C78A4001C1925884C
:1020B000374A1540C02292016A402D4D2A4392B200
:1020C00022800A7892009B181A882C490A402A43D9
:1020D00092B21A80F0BD0A7892009A181588254CA1
:1020E00025402D4C2C43A4B21480A6E70A78920018
:1020F0009A181488640406D515881E4C2540234C74
:102100002C43A4B214800A7892009A1814886406AA
:1021100006D51588174C2540174C2C43A4B21480C3
:10212000CA78012A17D00C78A4001C192288134DF4
:102130002A4020256A4092B20D4D2A4392B2228055
:102140000A7892009B181988114A1140084A0A43DC
:1021500092B21A80BEE70A7892009A181588074C46
:102160002540034C2C43A4B21480E9E78F89FFFF7C
:102170008080FFFF8F8FFFFFC080FFFFBF8FFFFFBB
:1021800004040000060400000080FFFF80C0FFFF81
:102190008FBFFFFF8F8EFFFF8081FFFF10B50B7B8E
:1021A000002B33D14B78002B18D00B789B00C31831
:1021B0001A88520606D51C884E4A14404E4A2243BD
:1021C00092B21A800B789B00C31819884B4A1140B1
:1021D0004B4A0A4392B21A80002010BD0B789B0034
:1021E000C3181A88520406D51C88424A1440454A2E
:1021F000224392B21A800B789B00C3181988424A76
:1022000011403F4A0A4392B21A80E5E74B78002B0F
:1022100037D10B789B00C3181A88520406D51C8846
:10222000344A1440374A224392B21A800B789B00FA
:10223000C3181A88520606D51C882E4A14402E4A06
:10224000224392B21A800B789B00C3181C88294A3B
:102250001440294A224392B21A800C78A40004192F
:102260002388294A1340264A13439BB223800B78C4
:102270009B00C3181988214801400A4392B21A8072
:10228000AAE70B789B00C3181A88520406D51C884D
:10229000184A14401B4A224392B21A800B789B00C2
:1022A000C3181A88520606D51C88124A1440124ACE
:1022B000224392B21A800B789B00C3181C880D4AE7
:1022C0001440104A224392B21A800C78A4000419D8
:1022D00023880A4A13400A4A13439BB223800B788F
:1022E0009B00C018038808490B401A4392B2028031
:1022F00072E7C0468F8FFFFFC080FFFFBF8FFFFFD9
:102300008080FFFF80C0FFFF8FBFFFFF4B78002B57
:102310000ED00B789B00C01803880C4A1340102283
:1023200053409BB20A4A13439BB20380002070477C
:102330000B789B00C0180388064A13408022520184
:102340005A40034B13439BB20380EFE7BF8FFFFF5D
:102350008080FFFF8FBFFFFF10B50B7B002B3AD1B2
:102360004B78002B1DD00B789B00C3181A8852069F
:1023700006D51C88194A1440194A224392B21A8081
:10238000CB78012B27D00A78920082181388154940
:102390000B4020214B409BB213490B439BB213804F
:1023A00019E00B789B00C3181A88520406D51C88C4
:1023B0000A4A14400D4A224392B21A800B789B00BD
:1023C000C01803880A4A1340C02292015A40064BA3
:1023D00013439BB20380002010BDC0468F8FFFFFC8
:1023E000C080FFFFBF8FFFFF8080FFFF80C0FFFF27
:1023F0008FBFFFFF002902D14C238022C252002050
:10240000704700005822835A02490B439BB2835203
:10241000002070470080FFFF4423C05A80B27047FD
:1024200010B501335B0812188020C0008446624456
:1024300007E00C7848780002204310800232023115
:10244000013B002BF5D110BD70B505000C004B7899
:10245000012B2ED00A7B002A00D06EE28B6909691D
:102460008B4200D84CE25B1AA3615023EA5AAA18A7
:102470002378DB009B18B94A944663441A88920576
:10248000920D1A80002900D03EE21A88B4490A430E
:1024900092B21A8023789B00ED182B88B14A134022
:1024A000C02292015A40B04B13439BB22B800020B4
:1024B00070BD8E690A69964200D91600217B0029F9
:1024C00024D0E178022941D0226A921B226222782C
:1024D000910069180988490600D4D1E1002B00D089
:1024E000BDE15033EB5AEB18D200D2189B4B9C46FF
:1024F000624413889B059B0D1380002E00D095E14C
:10250000138897490B439BB21380B2E1B6B2E288BD
:10251000616933002800FFF783FF5023EA5AAA18A5
:102520002378DB009B18914A944663441E802278EE
:102530009200AA1813888E490B4030214B409BB261
:1025400089490B439BB213800020B1E7236A9A426A
:1025500000D350E123789B00EB181988854A11407D
:10256000854A0A4392B21A80236A9B1B236223780E
:102570009A00AA181288520600D495E06278002AC0
:102580002CD15032AA5AAA18DB009B18734A9446E1
:1025900063441A889205920D1A80002E05D11A887C
:1025A0006F490A4392B21A801AE03E2E09D8720887
:1025B000F10700D501321988920292B20A431A80BB
:1025C0000EE07209F10600D1013A1988920292B226
:1025D0001143634A0A4392B21A8001E0012A26D0CD
:1025E0006289B3B261692800FFF71AFF63699B191A
:1025F0006361236A2269934224D99B1B2362637817
:10260000002B3CD15033EA5AAA182378DB009B18E0
:10261000564A944663441A889205920D1A80002EF9
:1026200014D11A884E490A4392B21A8029E04F32D7
:10263000AA5AAA18DB009B18484A94466344B2B2CF
:102640001A80CDE7002222621E00D8E73E2E09D86C
:102650007208F10700D501321988920292B20A433A
:102660001A800EE07209F10600D1013A198892022F
:1026700092B211433A4A0A4392B21A8001E0012B06
:1026800006D02289B3B261692800FFF7C9FE4EE780
:102690004F33EA5AAA182378DB009B18334A944632
:1026A0006344B2B21A80ECE76278002A2CD150322F
:1026B000A95A6918DA0052182C4B9C4662441388B8
:1026C0009B059B0D1380002E05D1138824490B43D5
:1026D0009BB213801AE03E2E09D87308F10700D58B
:1026E000013311889B029BB20B4313800EE07309E8
:1026F000F10600D1013B11889B029BB21943184B94
:102700000B439BB2138001E0012A37D02289B3B278
:1027100061692800FFF784FE63699B196361236A7E
:102720002269934235D99B1B23626378002B4DD1DC
:102730005033EA5AAA182378DB009B18074A9446BC
:1027400063441A889205920D1A80002E25D11A88AA
:1027500003490A4392B21A803AE0C04606040000D8
:102760000080FFFF8FBFFFFF8080FFFF020400009B
:10277000BF8FFFFF8F8FFFFF8081FFFF4F32AA5A6D
:10278000AA18DB009B18BD4A94466344B2B21A8073
:10279000BCE7002222621E00C7E73E2E09D872085D
:1027A000F10700D501321988920292B20A431A80C9
:1027B0000EE07209F10600D1013A1988920292B234
:1027C0001143AF4A0A4392B21A8001E0012B06D0AE
:1027D0006289B3B261692800FFF722FEA7E64F3392
:1027E000EA5AAA182378DB009B18A64A9446634449
:1027F000B2B21A80ECE722789200AA181088A24997
:102800000840A249014389B211805022A95A69188F
:102810002278D200521899498C4662449BB21380A8
:10282000228961692800FFF7FBFD80E63E2E09D86A
:102830007308F10700D5013311889B029BB20B434B
:10284000138016E07309F10600D1013B11889B0249
:102850009BB219438A4B0B439BB2138009E0502370
:10286000EB5AEB18D200D218864B9C466244B3B2A6
:1028700013806289B3B261692800FFF7D1FD56E683
:10288000002B2CD15033EB5AEB18D200D2187B4BD3
:102890009C46624413889B059B0D1380002E05D136
:1028A000138877490B439BB2138022E03E2E09D850
:1028B0007308F10700D5013311889B029BB20B43CB
:1028C000138016E07309F10600D1013B11889B02C9
:1028D0009BB219436A4B0B439BB2138009E0502310
:1028E000EB5AEB18D200D218644B9C466244B3B248
:1028F00013802289B3B261692800FFF791FD16E6C3
:102900000022A2611900B0E53E2909D84A08C9078A
:1029100000D501321988920292B20A431A80B9E5B1
:102920004A09C90600D1013A1988920292B21143AC
:10293000534A0A4392B21A80ACE5CA78022A3AD0C6
:10294000012A00D00EE189692269914200D8C4E0D1
:10295000891AA161002B14D15033E95A69182378E0
:10296000DB005B1845498C46634419888905890D4D
:102970001980002A00D0B4E019884148014389B287
:1029800019806378002B00D0DDE05033E95A6918D4
:102990002378DB005B183B498C4663441988890522
:1029A000890D1980002A00D0B4E01A8834490A43FE
:1029B00092B21A806EE5002B14D15033C25A82189D
:1029C0000B78DB009B182D4A944663441A889205C5
:1029D000920D1A800A69002A1DD11A8828490A43D3
:1029E00092B21A806378002B52D15033EA5AAA1857
:1029F0002378DB009B18234A944663441A88920587
:102A0000920D1A802269002A1ED11A881C490A4395
:102A100092B21A803EE03E2A09D85108D20700D56A
:102A200001311A88890289B20A431A80DAE751090A
:102A3000D20600D101391A88890289B21143104A9D
:102A40000A4392B21A80CDE73E2A09D85108D2072C
:102A500000D501311A88890289B20A431A8019E027
:102A60005109D20600D101391A88890289B211436D
:102A7000034A0A4392B21A800CE0C04602040000E6
:102A80000080FFFF060400008F8EFFFF8080FFFFA5
:102A9000012B16D0E369002B00D1FBE423789B00C7
:102AA000EB181A8830490A408A4202D0002A00D026
:102AB000F0E419882D4A11402D4A0A4392B21A8037
:102AC000E8E44F33EA5AAA182378DB009B18294A16
:102AD00094466344228A1A80DCE70022A2610A003D
:102AE00038E73E2A09D85108D00700D501311888A7
:102AF000890289B20143198043E75109D00600D108
:102B000001391888890289B208431B49014389B2F7
:102B1000198036E73E2A09D85108D20700D501317D
:102B20001A88890289B20A431A80B3E45109D2068D
:102B300000D101391A88890289B211430E4A0A4329
:102B400092B21A80A6E4012B00D0A3E44F33E95AD5
:102B500069182378DB005B1806498C46634492B2FF
:102B60001A8097E40120A3E4404000008F8FFFFF0C
:102B7000C080FFFF060400000080FFFF10B55C0866
:102B800012188020C0008446624406E01088023299
:102B90000870000A48700231013C002CF6D1DB07B6
:102BA00001D513880B7010BD7047000010B50E4999
:102BB0000E48002200F055F900280BD10C490B48B3
:102BC00000F06BF9002808D1084800F06FF90028E0
:102BD00006D110BDFDF724FBF0E7FDF721FBF3E77D
:102BE000FDF71EFBF5E7C0464000002078010020FD
:102BF00010010020022804D005D8002800D00220AF
:102C000070470120FCE70220FAE710B5FDF70AFB48
:102C100010BD000000B583B002680C4B9A4201D091
:102C200003B000BD0A4BDA69802109040A43DA6166
:102C3000DB690B400193019B002200211F20FDF75F
:102C4000EDFB1F20FDF7EEFBEAE7C046005C00400D
:102C50000010024010B50100B6239B00C058403B55
:102C60009C46614400F03EF910BD10B50300B62249
:102C7000920080588A005218D2009B186533FF33A7
:102C80001A6800F061F910BD10B50300B622920079
:102C900080588A005218D2009B185A6A00F0A6F990
:102CA00010BD10B5B6239B00C05800F061FA10BDEE
:102CB00070B504004379022B09D1B625AD006059E7
:102CC000012100F037FA605900F005FA70BDFDF7F8
:102CD000A7FAF2E710B50400B6239B00C05800F035
:102CE0002DFA637A002B04D0024A136906210B43A4
:102CF000136110BD00ED00E010B50400437A002B15
:102D000005D1B6239B00E05800F024FA10BD044A18
:102D1000136906218B431361FFF777FFF1E7C04684
:102D200000ED00E070B504001748B6239B00C450C6
:102D3000183BE050154B036008230371063B4371B9
:102D4000C371002343728372C372FDF7D9FC00285C
:102D500016D1B025AD006059182300220021FEF7DE
:102D600000FC6059582300228021FEF7FAFB6059CD
:102D700080235B0000228121FEF7F3FB002070BD61
:102D8000FDF74EFAE5E7C04650040020005C004025
:102D900010B5B0239B00C058FDF712FDFFF72AFFC6
:102DA00010BD10B514001A00B0239B00C0582300BA
:102DB000FEF790FAFFF71EFF10BD10B5B0239B0081
:102DC000C058FEF7C5FAFFF715FF10BD10B5B023C8
:102DD0009B00C058FEF74BFBFFF70CFF10BD10B572
:102DE000B0239B00C058FEF77CFBFFF703FF10BD2C
:102DF000B0239B00C3584AB2002A09DB7F2211404E
:102E00008A005218D2009B185333FF33187870474A
:102E10007F2211408A005218D2009B18987CF6E756
:102E200010B5B0239B00C058FEF77EF9FFF7E2FE15
:102E300010BD10B5B024A4000059FEF7E5FAFFF765
:102E4000D9FE10BD10B5B024A4000059FEF7B7FAA2
:102E5000FFF7D0FE10BD0000004870473C04002082
:102E6000704710B5002816D0AD239B00C358002B27
:102E700003D0AD239B000024C450002902D0AC2312
:102E80009B00C150A7239B000121C1540270FFF792
:102E900049FF002010BD0220FCE7002904D0AD232B
:102EA0009B00C150002070470220FCE710B5FFF7DF
:102EB0006FFF002010BD10B5AD239B00C358002B41
:102EC00006D01B689847002800D110BD0220FCE7FF
:102ED0000220FAE710B5AD239B00C3585B68984702
:102EE000002010BD70B50400AA239B00C51828005F
:102EF00000F064F9A5239B000122E250114BE25A35
:102F0000163BE2501033E15C1F230B40012B09D02C
:102F1000022B0CD0002B0FD12900200000F028FB41
:102F2000002070BD2900200000F058FBF8E72900C0
:102F3000200000F086FBF3E77F2399432000FFF792
:102F400045FFEDE7AE02000070B505000C00110072
:102F5000002C38D1A5239B00C358032B03D0052B8D
:102F600028D020003DE002005532FF32D3681269BC
:102F700093420DD99B1A5530FF30C3609A4205D950
:102F80009AB2280000F024FE20002AE092B2F8E76E
:102F9000AD239B00C3581B69002B04D0A7229200CD
:102FA000825C032A04D0280000F01AFE200018E0FA
:102FB0009847F8E7A5239B000022C2500021FFF7A5
:102FC00005FF20000DE0AD239B00C3589B69002B3B
:102FD00008D0A7229200825C032A05D121009847DD
:102FE000002070BD0220FCE70220FAE7F8B50500DA
:102FF0000C001100002C5BD1A5239B00C358022BB1
:103000000ED0042B01D0002B03D180212800FFF724
:10301000DDFEA8239B00EB5C012B43D02000F8BD14
:10302000026A466AB24220D8C76931003800FDF70B
:1030300083F8002906D1BE4204D8A6239B00EB5892
:103040009F421ED3AD239B00EB58DB68002B04D0BE
:10305000A7229200AA5C032A21D080212800FFF732
:10306000B5FE280000F0C8FDD3E7921B026292B2C1
:1030700000F0A6FD0023002200212800FFF7E2FE59
:10308000C7E70022280000F09BFDA6239B0000223A
:10309000EA50002300212800FFF7D4FEB9E72800FA
:1030A0009847DAE7A8239B000022EA542000B6E7FD
:1030B000AD239B00C3585B69002B08D0A722920068
:1030C000825C032A05D1210098470020A7E702204F
:1030D000A5E70220A3E770B50400402300220021E9
:1030E000FFF75FFE0125AC235B00E55040260C3363
:1030F000E650253BFF3B002280212000FFF751FED8
:10310000A5616662A7239B00E5540023A5229200D7
:10311000A35063601032A350AE239B00E358002BF2
:1031200006D0AD239B00E3585B6800212000984740
:10313000002070BD0174002070470000A7239B0091
:10314000C15C034A81540422C25400207047C04627
:103150009D020000A7239B00C35C042B01D000202C
:103160007047024BC25C013BC254F8E79D0200006D
:1031700010B5A7239B00C35C032B01D0002010BD1A
:10318000AD239B00C358DB69002BF7D09847F5E7C8
:103190000300002002E00130C0B201331A78002A97
:1031A000F9D1704710B54B88012B00D010BDA92371
:1031B0009B000122C25000F013FDF7E70B7803706B
:1031C0004B7843708B78CA7812029B1843800B7936
:1031D0004A7912029B1883808B79CA7912029B1854
:1031E000C380704710B504008021FFF7EFFD002178
:1031F0002000FFF7EBFD10BD30B583B005000C00DB
:103200006B460022DA804A88130A072B00D9B6E001
:103210009B006549CB589F46AC239B00C3581B6855
:10322000007C6A46911D98476B4606331B88002B2D
:1032300003D0E288002A00D0A6E0E388002B00D16A
:10324000AEE003B030BD037C002B09D1AD239B0061
:10325000C3589B6A6A46901D984702234370E3E770
:10326000AD239B00C358DB6A6A46901D9847022332
:103270004370D9E7D2B2052A5DD892004B4B9B58D8
:103280009F46AC239B00C3585B68002B04D0007C96
:103290006A46911D9847C7E72100FFF7A3FFD0E7D3
:1032A000AC239B00C3589B68002B04D0007C6A466B
:1032B000911D9847B8E72100FFF794FFC1E7AC23C1
:1032C0009B00C358DB68002B04D0007C6A46911D2C
:1032D0009847A9E72100FFF785FFB2E7AC239B00E1
:1032E000C3581B69002B04D0007C6A46911D984787
:1032F0009AE72100FFF776FFA3E7AC239B00C358B2
:103300005B69002B04D0007C6A46911D98478BE7CF
:103310002100FFF767FF94E7AC239B00C3589B692C
:10332000002B04D0007C6A46911D98477CE7210061
:10333000FFF758FF85E72100FFF754FF81E7037C83
:10334000002B07D1AD239B00C3585B6B6A46901DD1
:10335000984769E72100FFF745FF72E7037C002BE0
:1033600009D1AD239B00C3581B6B6A46901D98473B
:103370000723437058E72100FFF734FF61E721007E
:103380002800FFF72FFF5CE7191C934200D9111C9E
:103390008AB26B46D9800100280000F003FC4CE79C
:1033A000280000F01DFC4CE7343D0008543D0008A7
:1033B00070B504008B88002B23D1CB88002B20D143
:1033C0004B887F2B1DD87F251D40A7239B00C35C06
:1033D000032B0ED00D4BC5542900FFF721FD200013
:1033E00000F0FEFB002D07D0A7239B000222E25431
:1033F0000AE0FFF7F7FE07E0A7239B000122E25453
:1034000002E02000FFF7EEFE70BDC0469E02000005
:1034100070B504000D0089782A4B197001290FD866
:10342000A7239B00C35C022B0ED0032B23D02900C3
:10343000FFF7D8FE234B19782000FFF74BFD02E081
:103440002900FFF7CFFE70BD002911D04160A723EE
:103450009B000322C254FFF72EFD022803D0200058
:1034600000F0BEFBEFE729002000FFF7BBFEEAE714
:1034700000F0B6FBE7E7002911D0436899421ED05F
:10348000D9B2FFF727FD0F4B197861602000FFF7D5
:1034900012FD02280ED0200000F0A2FBD3E7A723E4
:1034A0009B000222C2544160FFF714FD200000F08F
:1034B00097FBC8E729002000FFF794FEC3E700F060
:1034C0008FFBC0E72C07002010B5CB88012B0BD158
:1034D000A7239B00C35C022B09D9032B11D1011D2B
:1034E000012200F05FFB01E0FFF77CFE10BD002B26
:1034F00007D00023836001000831012200F052FB55
:10350000F4E7FFF76FFEF1E710B5A7239B00C35C5C
:10351000013B022B14D8CB88022B0ED10123C360B0
:10352000A9239B00C358002B01D00323C3600100D3
:103530000C31022200F036FB10BDFFF753FEFBE713
:10354000FFF750FEF8E710B5A7239B00C35C013BD3
:10355000022B0AD84B88012B00D010BDA9239B0059
:103560000022C25000F03CFBF7E7FFF73BFEF4E718
:1035700010B50A7860231340202B06D0402B04D0CE
:10358000002B09D0FFF72EFE04E0AD239B00C358AB
:103590009B689847002010BD4B78092B18D89B00DA
:1035A0000D4AD3589F46FFF727FEF3E7FFF700FFCA
:1035B000F0E7FFF72DFFEDE7FFF786FFEAE7FFF7FC
:1035C000A3FFE7E7FFF7EEFDE4E7FFF7BCFFE1E766
:1035D000FFF708FEDEE7C0466C3D000870B5050049
:1035E0000C000A7860231340202B07D0402B05D015
:1035F000002B03D0FFF7F6FD002070BDA7239B0032
:10360000EB5C013B022B17D82379012B0FD8AD239C
:103610009B00EB589B68210028009847E388002B0B
:10362000EAD10028E8D1280000F0DAFAE4E7210026
:103630002800FFF7D7FDDFE721002800FFF7D2FDC4
:10364000DAE770B5050088880A790B7860241C4099
:10365000202C08D0402C06D0002C0DD02800FFF7DD
:10366000C1FD002406E0AD239B00EB589B682800B9
:1036700098470024200070BD202C0AD04E78012EDF
:103680003ED0032E0DD0002E64D02800FFF7AAFDF7
:10369000F0E7AD239B00EB589B6828009847040097
:1036A000E8E7A7239B00EB5C022B05D0032B14D08B
:1036B0002800FFF797FDDDE7002A01D0802A03D11B
:1036C0002800FFF78FFDD5E711002800FFF77EFBEC
:1036D00080212800FFF77AFBCCE74B88002B06D12E
:1036E000002A04D0802A02D0CB88002B03D02800E7
:1036F00000F076FABEE711002800FFF767FBF6E757
:10370000A7239B00EB5C022B05D0032B14D02800D1
:10371000FFF768FDAEE7002A01D0802A03D1280018
:10372000FFF760FDA6E711002800FFF74FFB80219F
:103730002800FFF74BFB9DE74B88002B9AD15306DF
:1037400003D1280000F04CFA94E711002800FFF79D
:1037500046FBF6E7A7239B00EB5C022B06D0032B6E
:1037600029D02800FFF73EFD340083E7002A01D06E
:10377000802A12D1000615D47F2313409900C9185E
:1037800089005131FF316918043100230B60022296
:10379000280000F007FA34006CE72800FFF722FD4C
:1037A000340067E77F2313409900C918890010315E
:1037B00069180431E9E744B2000622D40F20104012
:1037C00083001B189B00EB185933FF331B68002B39
:1037D00025D0002C28DB7F2313409C00E418A40094
:1037E0005134FF342C190434002A01D0802A24D10A
:1037F0000023236002222100280000F0D3F93400C6
:1038000038E70F20104083001B189B00EB189B69C2
:10381000002BDED12800FFF7E5FC34002AE7280062
:10382000FFF7E0FC340025E77F2313409C00E418F9
:10383000A40010342C190434D6E711002800FFF737
:10384000D7FA002802D001232360D3E700232360A6
:10385000D0E770B504000D001600002816D0FFF761
:1038600097FC013043009BB233802B7003236B70B5
:10387000013B08E001345A1CD2B2E8540233DBB2F7
:10388000AA180021117020780028F3D170BD000023
:1038900012230B80004870472C00002004230B806B
:1038A000004870472800002030B500230AE05D0082
:1038B00037344C5500015C0001340C19002525708B
:1038C0000133DBB2934206D2040F092CEFD85D001E
:1038D00030344C55EEE730BD70B50B4B18680B4BD0
:1038E0001D680B4B1B68C018002800D170BD094C27
:1038F00008222100FFF7D8FF210010310422280000
:10390000FFF7D2FFF2E7C046ACF7FF1FB0F7FF1F8B
:10391000B4F7FF1F0E00002010B51A230B80FFF72D
:10392000DBFF014810BDC0460C00002010B50A00A6
:10393000002805D105490648FFF78BFF034810BD55
:1039400002490348FFF785FFF8E7C046300700202B
:10395000943D000810B50A00034C04482100FFF70D
:1039600078FF200010BDC04630070020A03D0008B1
:1039700010B50A00002805D105490648FFF769FF80
:10398000034810BD02490348FFF763FFF8E7C0464C
:1039900030070020A83D000810B50A00002805D116
:1039A00005490648FFF755FF034810BD0249034883
:1039B000FFF74FFFF8E7C04630070020B43D00088E
:1039C0002223038000487047EC000020222303805C
:1039D00000487047C8000020222303800048704739
:1039E000A4000020AE239B00C35800221A730020BD
:1039F000704700000A230380004870478C000020B5
:103A000070B582B0AE239B00C5586B460022DA80A9
:103A10000B78603214001C401A4224D0202C77D13D
:103A20004B780A2B10D009D8022B12D0032B16D1B9
:103A30000122290000F0B6F800246CE00B2B0ED117
:103A40008B782B60002466E04B881B0A6B60002497
:103A500061E0291D012200F0A5F800245BE0FFF7DA
:103A6000C1FB022457E04E780A2E3AD013D8002E1C
:103A70001BD0062E48D14B881B0A222B25D0212B88
:103A80002BD1CB881A1C092B00D9092292B22349C9
:103A900000F088F83FE00B2E36D1A7239B00C35CD3
:103AA000032B2DD18B78AB6035E0A7239B00C35C43
:103AB000032B03D0FFF796FB02242CE002226B4677
:103AC000991D00F06FF8340025E0CB881A1C2D2BCF
:103AD00000D92D2292B21249DAE7FFF783FB0224C4
:103AE00019E0A7239B00C35C032B03D0FFF77AFBED
:103AF000022410E029000831012200F053F80AE006
:103B0000FFF770FB022406E0FFF76CFB022402E0E3
:103B1000FFF768FB0224200002B070BD980000206F
:103B20005C00002010B504008121FFF746F9002356
:103B3000E362AE239B00E058002805D0FFF790F920
:103B4000AE239B000022E250002010BD10B50400FF
:103B50000E2303228121FFF724F90123E3621020C1
:103B6000FFF77AF9AE239B00E050002803D0002332
:103B70000373002010BD0220FCE710B5AE24A400A2
:103B800003591C3C045D032C01D0002010BD1C7B9C
:103B9000002CFAD101341C7313000A008121FFF7B5
:103BA00048F9F2E710B51300A522920002248450D0
:103BB000C36103620A000021FFF73BF9002010BD3A
:103BC00010B513000A000021FFF733F9002010BDE3
:103BD00010B513000A000021FFF734F9002010BDD2
:103BE00010B5A5239B000422C2500023002200210F
:103BF000FFF71FF9002010BD10B5A5239B0005227B
:103C0000C250002300220021FFF71CF9002010BD44
:103C100013488546FEF7C8FF12480168090E124A8C
:103C2000914205D1114812490160124812490160C0
:103C300012481349134A002302E0D458C4500433F5
:103C4000C4188C42F9D3104A104C002301E01360D1
:103C50000432A242FBD300F025F8FCF71DFBFEE77F
:103C600000180020040000001F000000181002408F
:103C700001000000000001400000000000000020E2
:103C800048010020CC3D00084801002030090020F8
:103C9000FEE703008218934200D170471970013388
:103CA000F9E7000070B500260C4C0D4D641BA41004
:103CB000A64209D1002600F019F80A4C0A4D641BEF
:103CC000A410A64205D170BDB300EB589847013649
:103CD000EEE7B300EB5898470136F2E7C43D000821
:103CE000C43D0008C83D0008C43D0008F8B5C04602
:103CF000F8BC08BC9E467047F8B5C046F8BC08BC86
:043D00009E46704724
:103D04000102030405060708090A0B0C0D0E0F1027
:103D140002030405060708090A0B0C0D0E0F101008
:103D24000000000000000000010203040607080967
:103D34007E33000818320008463200087432000846
:103D44007E3300087E3300083E3300085C330008ED
:103D540082320008A0320008BE320008DC320008BB
:103D6400FA32000818330008BE350008CA350008C6
:103D7400D0350008C4350008D0350008AC3500083B
:103D8400A6350008D0350008B8350008B23500085B
:103D940067616C6178792D6D616900004B594D2D17
:103DA4004B494D0048494420436F6E6669670000E3
:103DB40048494420496E7465726661636500000079
:043DC4007901000879
:043DC800510100089D
:103DCC00010000000400000000127A001A03000039
:103DDC0000000000000000000000000000000000D7
:103DEC00000000000000000004030904120100029E
:103DFC000000004083042B57000201020301000065
:103E0C00913800089D380008553900082D390008F4
:103E1C00193900087139000899390008050109069B
:103E2C00A101050719E029E7150025017501950881
:103E3C008102750895018101050719042963150094
:103E4C002501750195608102C00000000A06000280
:103E5C000000004001000000092111010001222D89
:103E6C000000000009022200010100E032090400F8
:103E7C00000103010200092111010001222D00079C
:103E8C000581030E000A000009022200010100E076
:103E9C003209040000010301000009211101000195
:103EAC00222D00070581030E0007000009022200E5
:103EBC00010100E0320904000001030000000921A7
:103ECC0011010001222D00070581030E000A0000DC
:103EDC004D3B0008253B0008013A0008000000009B
:103EEC0000000000E53900080000000000000000A0
:103EFC000000000000000000CD390008C1390008A6
:083F0C00D9390008F53900085D
:0400000508003C11A2
:00000001FF
